:060000000A128A110C280F
:10000800FE00030EF0000A08F1000A128A150F2BF1
:100018000A128A110F288313AC30FD000930FE0044
:100028001C30FF00A03084000A128A156B210A12C6
:100038008A116730FD000830FE00CF30FF005E30C7
:1000480084000A128A156B210A128A110A128A156B
:10005800BF200A128A11FA000A128A15C0200A1251
:100068008A11FB00AC308400B7300A128A15C72009
:100078000A128A112030840045300A128A15C720D6
:100088000A128A1183010A128A114A288312031359
:10009800640883160313BA008312031365088316D2
:1000A8000313BB0083120313660883160313BC00F3
:1000B8000230BE00BD010A128A1588220A128A116E
:1000C800BA3083120313C9000030CA00CB010A12E8
:1000D8008A15D9250A128A113230F20000300A1224
:1000E8008A15B3220A128A113430F20001300A123A
:1000F8008A15B3220A128A113230F20002300A122B
:100108008A15B3220A128A113430F20003300A1217
:100118008A15B3220A128A110A30F6000030F70055
:100128000A128A1542210A128A117308F900720804
:10013800F8000A128A15AC230A128A117608831667
:100148000313C00064304002031CAB28AC28AE285F
:100158006330C00001300A128A11D6250A128A11AA
:1001680083160313C100B830B7000B30B800FF3056
:10017800B7070318B80AFF30B807370A031DC8289D
:10018800380A031DC828C928BB283E304106031D6C
:10019800CE28CF28EB28F930F2008630F300BA30A9
:1001A8000A128A1511220A128A11BA30831203130D
:1001B800C9000030CA0083160313400883120313D2
:1001C800CB000A128A15D9250A128A11AC2A3D30A9
:1001D8004106031DF028F128252906303D020318A1
:1001E800F628F72825293D0883120313DC005C074D
:1001F800A03E840083130008F200840A00088403E8
:10020800F300BA300A128A1511220A128A11BA307A
:1002180083120313C9000030CA0083160313400871
:1002280083120313CB000A128A15D9250A128A11E0
:10023800013083120313DC005C0883160313BD0727
:10024800AC2A3B304106031D2A292B2958293D0891
:1002580003192F29302958290130BD023D0883127E
:100268000313DC005C07A03E840083130008F2003F
:10027800840A00088403F300BA300A128A1511228E
:100288000A128A11BA3083120313C9000030CA0057
:1002980083160313400883120313CB000A128A152E
:1002A800D9250A128A11AC2A02303E06031D5D299F
:1002B8005E299929373041060319632964296A2977
:1002C8002F304106031D69296A2999290A128A15BE
:1002D80028210A128A110030F6008630F700803093
:1002E800F8000A128A15E0220A128A11F201C630B1
:1002F8000A128A15F1210A128A11F2010F300A1224
:100308008A15F1210A128A11A53083120313DC0021
:10031800DC0B8C298F29043083160313BE0011309F
:10032800BF00831203131215AC2A06303E06031DC4
:100338009E299F29AC2A1F304106031DA429A529FF
:10034800AC2AF7290A128A1528210A128A1178304C
:10035800F6008630F7008030F8000A128A15E0228D
:100368000A128A11083083160313BE001530BF0025
:10037800AC2A083083120313C9008730CA008316D9
:100388000313400883120313CB000A128A15D925D8
:100398000A128A110A128A1528210A128A110A30A9
:1003A80083160313BE001730BF00AC2A0E30831229
:1003B8000313C9008730CA00831603134008831249
:1003C8000313CB000A128A15D9250A128A110A12B8
:1003D8008A1528210A128A110B3083160313BE00CE
:1003E8001930BF00AC2A3908003A0319A629013A86
:1003F8000319BD29033A0319DA29022AAC2A40084D
:1004080083120313CA00BA300A128A1582250A1207
:100418008A11C22A023083160313BE008312031303
:100428001211F2010C300A128A15F1210A128A11EE
:10043800A53083120313DC00DC0B202A232AC22AEE
:10044800063083160313BE001330BF000A128A1544
:1004580028210A128A11F2010C300A128A15F12198
:100468000A128A11A53083120313DC00DC0B3A2A26
:100478003D2A83120313121190283F088312031395
:10048800CA008316031341080A128A11CA220A12E3
:100498008A11023A03190E2A133A0319242AC22A86
:1004A8003F0883120313CA008316031341080A1274
:1004B8008A1114270A128A1183160313B900C22A53
:1004C8003F0883120313CA008316031341080A1254
:1004D8008A15F2260A128A11C22A3F080A128A15B8
:1004E80075230A128A11113A031D7B2A7C2AC22A13
:1004F8000A128A1528210A128A1106308316031354
:10050800BE001330BF0090280A128A1528210A124B
:100518008A11F2010C300A128A15F1210A128A1185
:10052800A53083120313DC00DC0B982A9B2A812A4E
:100538003F0883120313CA008316031341080A12E3
:100548008A1133240A128A11113A0319882AC22AF5
:10055800831603133E08023A0319032A063A0319BD
:10056800412A023A0319542A0E3A0319642A023A14
:100578000319712A013A03199C2AC22AFF308316EB
:100588000313BF0090280A128A110C288312031340
:10059800D20011304A06031DD22AD32ADE2A05309A
:1005A800AF003330AE00AD01C101C201C301C401C7
:1005B8003F30D2002F08031DE22AE32AE52A023041
:1005C800322C37305206031DEA2AEB2A092B043055
:1005D8002D020318F02AF12A092B2D08413E840028
:1005E8003430831380002D08C63EF9002A300A12E1
:1005F8008A157A210A128A11013083120313CB005B
:100608004B08AD070530AF00252B2F305206031DD0
:100618000E2B0F2B252B04302D020318142B152B12
:10062800252B2D08413E84003230831380002D088D
:10063800C63EF9002A300A128A157A210A128A114E
:10064800002B04302D06031D2A2B2B2B312CD30114
:10065800D4018312031353084E3E840053080A1230
:100668008A15A4210A128A1183138000013083128B
:100678000313D3070318D40A0030D4075408803A68
:10068800FF0080307F02031D4B2B04305302031CF4
:100698004E2B4F2B2D2B4E30F2000430F300003040
:1006A800F40041300A128A158D240A128A11720840
:1006B8007304031D602B612B632B1130322C013026
:1006C80083120313AE0230302E06031D6C2B6D2BE4
:1006D800D42BF2010C300A128A15F1210A128A1160
:1006E800A53083120313CB00CB0B782B7B2B453023
:1006F800F6008630F7008030F8000A128A15E022EA
:100708000A128A113430F6008630F700C030F8003B
:100718000A128A15E0220A128A113C308312031346
:10072800B000CA2BCB30F9000A30F2000030F300D9
:100738003008CB00CC014B08F4004C08F5000A1235
:100748008A116D250A128A117208303E0A128A151A
:100758007A210A128A11CC30F9000A30F2000030EE
:10076800F300831203133008CB00CC014B08F400CC
:100778004C08F5000A128A1531260A128A117208E5
:10078800303E0A128A157A210A128A11831203133B
:100798003008031DD02BD12B962B3330AE00072CFD
:1007A8000A128A1528210A128A111230F600863098
:1007B800F7008030F8000A128A15E0220A128A111E
:1007C800C030F900831203132E080A128A157A2101
:1007D8000A128A118930F6008630F700C130F80015
:1007E8000A128A15E0220A128A114D308312031365
:1007F800CD001930CC004F30CB00CB0B012CCC0BEB
:10080800012CCD0B012C0A128A1528210A128A11F3
:100818000030F6008630F7008030F8000A128A159A
:10082800E0220A128A11F201C6300A128A15F12151
:100838000A128A11F2010F300A128A15F1210A12DE
:100848008A11A53083120313CB00CB0B292C2C2C37
:1008580083120313AD010530AF0010300800831276
:100868000313CE0019304A06031D3B2C3C2C422CA6
:10087800A501A6010130A3000030A4002608803A93
:10088800FF0080307F02031D4B2C04302502031823
:100898004E2C4F2C732C83120313230824040319A2
:1008A800562C572C732CA301A401C630F6008630B1
:1008B800F7008030F8000A128A15E0220A128A111D
:1008C800F201C0300A128A15F1210A128A11F201C6
:1008D8000F300A128A15F1210A128A11AC2C8312E0
:1008E80003132608803AFF0080307F02031D7E2C08
:1008F80004302502031C812C822CAC2C8312031398
:1009080023082404031D892C8A2CAC2C0130A30055
:100918000030A4000A128A1528210A128A115630BA
:10092800F6008630F7008030F8000A128A15E022B7
:100938000A128A11F201C0300A128A15F1210A122C
:100948008A11F2010F300A128A15F1210A128A114E
:100958003730831203134E06031DB32CB42CCD2C51
:100968002508313E8400343083138000250803397C
:10097800C03EF9002A300A128A157A210A128A1111
:10098800013083120313A5070318A60A0030A6072F
:10099800E42C2F304E06031DD22CD32CE42C250832
:1009A800313E840032308313800025080339C03E6D
:1009B800F9002A300A128A157A210A128A11C42CDF
:1009C800083025062604031DEA2CEB2C6B2D353048
:1009D800F2000430F3000030F40031300A128A15B6
:1009E8008D240A128A1172087304031DFC2CFD2C35
:1009F8004F2D83120313CF01D001831203134F0825
:100A0800313E840083130008F2004F080A128A1549
:100A1800B3220A128A11013083120313CF07031875
:100A2800D00A0030D0075008803AFF0080307F029B
:100A3800031D202D04304F02031C232D242D012DCE
:100A48000A128A1528210A128A116730F6008630A0
:100A5800F7008030F8000A128A15E0220A128A117B
:100A6800A830F6008630F700C030F8000A128A1560
:100A7800E0220A128A114D3083120313CD00193077
:100A8800CC004F30CB00CB0B472DCC0B472DCD0BDB
:100A9800472D11306C2D0A128A1528210A128A1145
:100AA8006730F6008630F7008030F8000A128A15A1
:100AB800E0220A128A11DE30F6008630F700C030D4
:100AC800F8000A128A15E0220A128A113F2D103006
:100AD800080083120313C601F31F732D742D7B2D99
:100AE800F209F309F20A0319F30AC601C60AF51F47
:100AF8007E2D7F2D882DF409F509F40A0319F50ACE
:100B08000130F6007608C606C701C80172087304EA
:100B180003198F2D902DC72DC501C50A9E2D0130B3
:100B28000310F20DF30DFF3E031D942D0130F60066
:100B38007608C507F31FA12DA22D932D01300310B0
:100B4800C70DC80DFF3E031DA32D73087502031DB5
:100B5800AF2D72087402031CB22DB32DBA2D720882
:100B6800F4027308031CF503F5024714013003105F
:100B7800F30CF20CFF3E031DBB2D0130C502031D13
:100B8800C62DC72DA22D46080319CB2DCC2DD12D4E
:100B9800C709C809C70A0319C80A4808F30047085B
:100BA800F2000800F3007308031DDB2DDC2DE12D96
:100BB8008312031306083F39FF2D3F3083120313B6
:100BC8000605F2003F3072060319EB2DEC2DF32DCC
:100BD8007B080319F02DF12DF32DFB01DC2D3F309F
:100BE8000605F2003F307206031DFB2DFC2DFE2D7D
:100BF800FB01FB0A3F300800203445344E3454349E
:100C0800453452342034203450344134533453342E
:100C180057344F3452344434203400342034573459
:100C280052344F344E3447342034503441345334E2
:100C3800533457344F34523444342034003420343D
:100C48002034543449344D3445342034203420344D
:100C58002034203445342034203453345034003484
:100C680057346134693474342E342E342E34663457
:100C78006F3472342034363430347334653463342A
:100C88000034203459346F3475342034613472346C
:100C98006534203462346C346F3463346B346534B7
:100CA80064340034523465342D3465346E3474340D
:100CB8006534723420344E346534773420345034FB
:100CC80077346434003420345034613473347334EA
:100CD80077346F3472346434203443346834613484
:100CE8006E34673465340034233420345434493442
:100CF8004D344534203420342034203420344534D5
:100D08002034203453345034003420346134743463
:100D1800743465346D34703474342034723465340A
:100D28006D34613469346E34003420344C346F349B
:100D380067347334203443346C346534613472342A
:100D480065346434203400342034533475346334C7
:100D58006334653473347334663475346C346C348A
:100D68007934203400344334683461346E34673461
:100D780065342034703461347334733477347234A6
:100D88006434003445346E34743465347234203439
:100D98004E34653477342034503477346434003436
:100DA80043346C3465346134723420346C346F34B9
:100DB8006734003420344634613469346C34653423
:100DC800643420340034563469346534773420343C
:100DD8006C346F346734003420344E346F3420342C
:100DE8006C346F3467347334003443342034003443
:100DF80047343134003447343234003447343334E0
:100E0800003447343434003443344C3400344734E9
:100E18004E340034433450340034473452340034B0
:100E280083120313CD0013304A06031D1C2F1D2FF8
:100E38001E2FAC012F304D06031D232F242F342FD6
:100E480002302C020318292F2A2F342F0130CB000F
:100E58004B08AC070A128A1528210A128A11422F58
:100E680037304D06031D392F3A2F422F2C0803190E
:100E78003E2F3F2F422F0130AC022E2F023083121B
:100E880003132C020318492F4A2F7D2F8030F900B5
:100E98002A300A128A157A210A128A118312031338
:100EA8002C08CB004B075E3E840083130008F60035
:100EB800840A00088403F7008230F8000A128A15B1
:100EC800E0220A128A11831203132C08CB004B0765
:100ED800603E840083130008F600840A0008840337
:100EE800F700C230F8000A128A15E0220A128A11A5
:100EF800B32F02302C06031D822F832FB32F2C080B
:100F0800CB004B075C3E840083130008F600840A7C
:100F180000088403F7008230F8000A128A15E022DC
:100F28000A128A11831203132C08CB004B075E3E6A
:100F3800840083130008F600840A00088403F7007D
:100F4800C230F8000A128A15E0220A128A11C0304B
:100F5800F9002A300A128A157A210A128A11831294
:100F680003132C08080083120313C5004508C600A4
:100F7800E12F0130F4020030031CF503F502730879
:100F8800F7007208F600F20A0319F30A7708FF005F
:100F9800760884000A128A1500200A128A11F800BD
:100FA800460884000130C6077808831380000008CB
:100FB800031DDF2FE02FE12FF02F74087504031DA8
:100FC800E62FE72FBD2FF02F4608840083138001FA
:100FD8000130F6007608C6070130F4020030031C21
:100FE800F503F502740A031DFD2F750A031DFD2F75
:060FF800FE2FE82F0800A7
:10100000FF1B0A2883137F1883170008840A03191B
:10101000FF0A08007F087F398A000408840A031940
:04102000FF0A820041
:10117E00FF3401348316031306083F388600080037
:10118E0064008001840A0406031900340406C8288A
:10119E00E7348634D4348634B73486344F344E3400
:1011AE0000348E30831603139F00831203139F1790
:1011BE001F131F1408000A128A1504210A128A1519
:1011CE000A128A15F8200A128A15080083160313CC
:1011DE008801091189100A128A152F250A128A15FB
:1011EE000800831203138C118316031311140A12B1
:1011FE008A15BB210A128A150800831203138C115B
:10120E008316031311150A128A15BB210A128A15A9
:10121E000800F400831203138C11740893000A1251
:10122E008A15BB210A128A1508000B348734113433
:10123E008734FC348634FF348634023487340534E4
:10124E008734F20101300A128A15F1210A128A1529
:10125E00A630F600F60B31290000080083120313A6
:10126E0012149214FA308316031392008C14831204
:10127E00031312110800831203131F151F19482997
:10128E00492945291E08F500831603131E08F4008C
:10129E007508F3007408F200080000300A128A156F
:1012AE005D220A128A15F80078087F39F80078084E
:1012BE00F50000300A128A15D3210A128A15080089
:1012CE007E088A007F0882000A128A1567210A1298
:1012DE008A158000840A04087D0603190034FF0A6B
:1012EE000319FE0A6B2983120313C900F201790850
:1012FE000A128A15F1210A128A15F201F20A8312D4
:10130E00031349080A128A15F1210A128A150800D8
:10131E00F500F401751C9429952999297208F3009A
:10132E007308F4070310F20D0310F50C7508031D76
:10133E00A129A229912974080800F30064008316DC
:10134E0003178C18AB29AC29A52973088312031730
:10135E008D003F30F2007208831603178C050C14B3
:10136E00831203170C080800D030F2000730F30088
:10137E00831203138C19C429C529D1290130F20215
:10138E000030031CF303F30272087304031DD0290B
:10139E00D129BF298C110800F6000A128A15F820EF
:1013AE000A128A15D0300A128A1510210A128A15CD
:1013BE0076080A128A1510210A128A1575080A1261
:1013CE008A1510210A128A150A128A1504210A1288
:1013DE008A150800F5007218F529F92983120313EE
:1013EE000915FC2983120313091175088800891445
:1013FE00A630F300F30B012A0000831203138910A9
:10140E001B30F4009E30F300F30B0B2AF40B0B2A67
:10141E0000000800F8007808F7007308F50072085D
:10142E00F400F20A0319F30A750883120313FF007E
:10143E00740884000A128A1500200A128A15F60012
:10144E00770884000130F7077608831380000008C0
:10145E00031D322A332A142A0800F40083120313C0
:10146E008C118316031391150A128A15BB210A12C9
:10147E008A15831203131308F5007403031D482AFB
:10148E00492A4D2A831603139116502A83160313E5
:10149E009112831203138C118316031311160A1261
:1014AE008A15BB210A128A1575080800F6000A1261
:1014BE008A15F8200A128A15D0300A128A151021C0
:1014CE000A128A1576080A128A1510210A128A152E
:1014DE000A128A15E2200A128A15D1300A128A15CA
:1014EE0010210A128A1501300A128A1534220A12A4
:1014FE008A15F7000A128A1504210A128A1577082E
:10150E0008000A128A15D8200A128A150A128A159C
:10151E00ED200A128A15003083120313CE0001301B
:10152E00CD008630CC00A030CB000A128A154223A3
:10153E000A128A150A128A1554210A128A150A12DB
:10154E008A15C1200A128A150A128A1535210A1225
:10155E008A150B178B170800F400831603178C18C7
:10156E00B92ABA2AB42A7408831203178D00720896
:10157E008C003F30F3007308831603178C0583121B
:10158E00031303108B1FCC2ACD2ACE2A03148B13E0
:10159E00831603170C1555308D00AA308D008C1450
:1015AE000C1183120313031CDD2ADE2ADF2A8B178C
:1015BE000800F20178080A128A15F1210A128A151A
:1015CE00FE2AF201F20A7708FF00760884000A125A
:1015DE008A1500200A128A150A128A15F1210A129A
:1015EE008A150130F6070318F70A0030F707770857
:1015FE0083120313FF00760884000A128A15002056
:10160E000A128A15003A031D0D2B0E2BE82A08002C
:10161E00831203138C1C142B152B3B2B0130A907A3
:10162E000318AA0A0030AA07E2302906043003196B
:10163E002A06031D232B242B3A2BA901AA013008BD
:10164E0003192A2B2B2B2E2B0130B0023A2B3008EC
:10165E00031D322B332B3A2B2F080319372B382B24
:10166E003A2B0130AF028C1071088A00700E830085
:10167E00FE0E7E0E09008312031394154B08CF0045
:10168E004C08D0004D08D1004E08D2000230031095
:10169E00CF0DD00DD10DD20DFF3E031D4E2B520896
:1016AE00F5005108F4005008F3004F08F200013025
:1016BE00F9003130F8002D30F7000030F6000A1234
:1016CE008A158A260A128A157208FF3E831603139C
:1016DE0093008312031394168C110800F90017302F
:1016EE007906031D7B2B7C2BAA2BFF308312031351
:1016FE00A700FF30A800FF30FA009930F6008630C0
:10170E00F7008030F8000A128A15E0220A128A15B4
:10171E00A830F6008630F700C030F8000A128A159D
:10172E00E0220A128A154D3083120313C7001930B6
:10173E00C6004F30C500C50BA22BC60BA22BC70B84
:10174E00A22B1130AB2B2230080083120313C701DA
:10175E00C801760877040319B52BB62BED2BC601FD
:10176E00C60AC42B01300310F60DF70DFF3E031D04
:10177E00BA2B0130C5004508C607F71FC72BC82B6B
:10178E00B92B01300310C70DC80DFF3E031DC92B29
:10179E0077087902031DD52B76087802031CD82B07
:1017AE00D92BE02B7608F8027708031CF903F9020F
:1017BE00471401300310F70CF60CFF3E031DE12B0E
:1017CE000130C602031DEC2BED2BC82B4808F70089
:1017DE004708F600080002300A128A155D220A1226
:1017EE008A1583120313A00001300A128A155D2296
:1017FE000A128A1583120313A10000300A128A15E9
:10180E005D220A128A1583120313A2002008F80023
:10181E0004300310F80CFF3E031D102C780803391A
:10182E00303EBA0020080F39303EBB002108F800C8
:10183E0004300310F80CFF3E031D202C78080739E6
:10184E00303EBC0021080F39303EBD002208F800A2
:10185E0004300310F80CFF3E031D302C78080739B6
:10186E00303EBE0022080F39303EBF00C0010800D6
:10187E000130F6007608FA070A307A06031D482C66
:10188E00492C4A2CFA010A30F2007A080A128A15FB
:10189E008F210A128A15053EF700F801F9016C2C0A
:1018AE007808AC3E84000008F20077080A128A1508
:1018BE00B3220A128A150130F6007608F7070130B6
:1018CE00F8070318F90A0030F9077808AC3E8400CF
:1018DE0083130008031D742C752C572C83120313CD
:1018EE002808803AFF0080307F02031D802C0930CB
:1018FE0027020318832C842C8C2C013083120313A3
:10190E00A7070318A80A0030A8070800F70001303F
:10191E00F3020030031CF403F402730A031D9B2C24
:10192E00740A031D9B2C9C2CAD2CF201F301DC2CB4
:10193E000130F5007508F7070130F5007508F2075C
:10194E000130F3020030031CF403F4027708840024
:10195E00831300080319B42CB52CCE2C7208840006
:10196E0000080319BB2CBC2CCE2C7308740403196D
:10197E00C12CC22CCE2C720884000008F50077080A
:10198E008400000875060319CD2CCE2C9F2C7208EE
:10199E0084000008F500770884000008F60075083A
:1019AE007602F200F301031CF30308000A128A15F3
:1019BE00F2230A128A15C230F900831203133A0871
:1019CE000A128A157A210A128A15C330F900831277
:1019DE0003133B080A128A157A210A128A15C4309B
:1019EE00F9003A300A128A157A210A128A15C53080
:1019FE00F900831203133C080A128A157A210A127F
:101A0E008A15C630F900831203133D080A128A158F
:101A1E007A210A128A15C730F9003A300A128A154D
:101A2E007A210A128A15C830F900831203133E0870
:101A3E000A128A157A210A128A15C930F900831200
:101A4E0003133F080A128A157A210A128A15080012
:101A5E00C330F700CD30F600F60B332DF70B332DD8
:101A6E00F20133300A128A15F1210A128A151B303F
:101A7E00F7009E30F600F60B422DF70B422D0000BC
:101A8E00F20133300A128A15F1210A128A15A63094
:101A9E00F600F60B502D0000F20133300A128A15B3
:101AAE00F1210A128A155B2D5C2D0000F2013830EF
:101ABE000A128A15F1210A128A15A630F600F60BC3
:101ACE00662D0000F20101300A128A15F1210A1268
:101ADE008A15A630F600F60B722D0000F2010C30BE
:101AEE000A128A15F1210A128A15A630F600F60B93
:101AFE007E2D0000080083120313CD002330F60064
:101B0E008630F7008030F8000A128A15E0220A1299
:101B1E008A150A128A15DD240A128A1583120313F6
:101B2E004D08F6000030F700CB30F8000A128A1587
:101B3E00E0220A128A15CE30F9000A30F200003087
:101B4E00F300831203134A08CB00CC014B08F400B8
:101B5E004C08F5000A128A116D250A128A157208B0
:101B6E00303E0A128A157A210A128A15CF30F900F0
:101B7E000A30F2000030F300831203134A08CB0040
:101B8E00CC014B08F4004C08F5000A128A153126D8
:101B9E000A128A157208303E0A128A157A210A1222
:101BAE008A1508000A128A15F2230A128A153A308B
:101BBE00F2000030F3000630F4000030F500AC30D7
:101BCE000A128A11B7270A128A15831203134908BB
:101BDE00F2004A08F3000230F4000030F500B23093
:101BEE000A128A11B7270A128A150A30F20000303B
:101BFE00F300831203134B08CC00CD014C08F40004
:101C0E004D08F5000A128A116D250A128A157208FE
:101C1E00303E83160313B4000A30F2000030F30096
:101C2E00831203134B08CC00CD014C08F4004D0871
:101C3E00F5000A128A1531260A128A157208303EEC
:101C4E0083160313B500B6010A128A153F240A1231
:101C5E008A150800F801F51F352E362E3D2EF40993
:101C6E00F509F40A0319F50AF801F80AF31F402ED4
:101C7E00412E462EF209F309F20A0319F30A7208ED
:101C8E00730403194B2E4C2E7B2EF701F70A5A2E96
:101C9E0001300310F20DF30DFF3E031D502E0130E7
:101CAE00F6007608F707F31F5D2E5E2E4F2E730893
:101CBE007502031D642E72087402031C672E682EB3
:101CCE006E2E7208F4027308031CF503F502013040
:101CDE000310F30CF20CFF3E031D6F2E0130F702C2
:101CEE00031D7A2E7B2E5E2E780803197F2E802EF2
:101CFE00852EF409F509F40A0319F50A7508F3009F
:101D0E007408F2000800003083120313C90000307B
:101D1E00C8000030C7000030C60075087404730494
:101D2E00720403199B2E9C2EE92ECA01CA0AAC2EF0
:101D3E000130C5000310F20DF30DF40DF50DC50BBA
:101D4E00A12E0130C5004508CA07F51FAF2EB02ED3
:101D5E009F2E0130C5000310C60DC70DC80DC90D4D
:101D6E00C50BB22E75087902031DC72E74087802B2
:101D7E00031DC72E73087702031DC72E7208760245
:101D8E00031CCA2ECB2EDA2E7208F6027308031C21
:101D9E00730FF7027408031C740FF8027508031C06
:101DAE00750FF902461401300310F50CF40CF30C08
:101DBE00F20CFF3E031DDB2E0130CA02031DE82E7E
:101DCE00E92EB02E4908F5004808F4004708F30044
:101DDE004608F200080083120313D900270A031DD8
:101DEE00FC2E280A031DFC2EFD2E092FF030F600C6
:101DFE008630F700C030F8000A128A15E0220A1267
:101E0E008A15FF2F15304A06031D0E2F0F2F102F88
:101E1E00AB012F305906031D152F162F302F270813
:101E2E00FF3ECB0028080318013EFF3ECC004C08B5
:101E3E00803A803C031D252F4B082B020318282FB8
:101E4E00292F302F013083120313CB004B08AB0721
:101E5E003F2F3730831203135906031D372F382FA8
:101E6E003F2F2B0803193C2F3D2F3F2F0130AB0284
:101E7E00DA01DB010A30F200831203132B080A1277
:101E8E008A158F210A128A15053E83120313D80074
:101E9E005A084D3E84005A0858070A128A15A42182
:101EAE000A128A1583138000013083120313DA0796
:101EBE000318DB0A0030DB075B08803AFF00803036
:101ECE007F02031D6C2F0A305A02031C6F2F702FD6
:101EDE00412FC030F9000A30F2000030F3008312B7
:101EEE0003132B08CB00CC014B08F4004C08F50073
:101EFE000A128A1531260A128A157208303E0A1203
:101F0E008A157A210A128A15C230F9008312031338
:101F1E004D080A128A157A210A128A15C330F90061
:101F2E00831203134E080A128A157A210A128A1591
:101F3E00C430F9003A300A128A157A210A128A152B
:101F4E00C530F900831203134F080A128A157A213D
:101F5E000A128A15C630F9008312031350080A12AA
:101F6E008A157A210A128A15C730F9003A300A12F8
:101F7E008A157A210A128A15C830F90083120313C2
:101F8E0051080A128A157A210A128A15C930F900E7
:101F9E008312031352080A128A157A210A128A151D
:101FAE00CB30F9008312031353080A128A157A21D3
:101FBE000A128A15CC30F9008312031354080A1240
:101FCE008A157A210A128A15CE30F900831203136C
:101FDE0055080A128A157A210A128A15CF30F9008D
:101FEE008312031356080A128A157A210A128A15C9
:021FFE000800D9
:02400E00723FFF
:00000001FF
